{
  "_format": "hh-sol-artifact-1",
  "contractName": "DexSwap",
  "sourceName": "contracts/DexSwap.sol",
  "abi": [
    {
      "inputs": [
        {
          "internalType": "string",
          "name": "_name",
          "type": "string"
        },
        {
          "internalType": "contract Dagogo",
          "name": "_token",
          "type": "address"
        }
      ],
      "stateMutability": "nonpayable",
      "type": "constructor"
    },
    {
      "anonymous": false,
      "inputs": [
        {
          "indexed": true,
          "internalType": "address",
          "name": "previousOwner",
          "type": "address"
        },
        {
          "indexed": true,
          "internalType": "address",
          "name": "newOwner",
          "type": "address"
        }
      ],
      "name": "OwnershipTransferred",
      "type": "event"
    },
    {
      "anonymous": false,
      "inputs": [
        {
          "indexed": false,
          "internalType": "address",
          "name": "account",
          "type": "address"
        },
        {
          "indexed": false,
          "internalType": "uint256",
          "name": "amount",
          "type": "uint256"
        },
        {
          "indexed": false,
          "internalType": "uint256",
          "name": "price",
          "type": "uint256"
        }
      ],
      "name": "buyTokensEvent",
      "type": "event"
    },
    {
      "anonymous": false,
      "inputs": [
        {
          "indexed": false,
          "internalType": "address",
          "name": "owner",
          "type": "address"
        },
        {
          "indexed": false,
          "internalType": "uint256",
          "name": "price",
          "type": "uint256"
        }
      ],
      "name": "setPriceEvent",
      "type": "event"
    },
    {
      "anonymous": false,
      "inputs": [
        {
          "indexed": false,
          "internalType": "address",
          "name": "account",
          "type": "address"
        },
        {
          "indexed": false,
          "internalType": "uint256",
          "name": "amount",
          "type": "uint256"
        },
        {
          "indexed": false,
          "internalType": "uint256",
          "name": "price",
          "type": "uint256"
        }
      ],
      "name": "soldTokensEvent",
      "type": "event"
    },
    {
      "inputs": [],
      "name": "burnRatio",
      "outputs": [
        {
          "internalType": "uint256",
          "name": "",
          "type": "uint256"
        }
      ],
      "stateMutability": "view",
      "type": "function"
    },
    {
      "inputs": [
        {
          "internalType": "contract IERC20",
          "name": "_purchasingToken",
          "type": "address"
        },
        {
          "internalType": "uint256",
          "name": "_amount",
          "type": "uint256"
        }
      ],
      "name": "buyTokens",
      "outputs": [],
      "stateMutability": "nonpayable",
      "type": "function"
    },
    {
      "inputs": [],
      "name": "externalToken",
      "outputs": [
        {
          "internalType": "contract IERC20",
          "name": "",
          "type": "address"
        }
      ],
      "stateMutability": "view",
      "type": "function"
    },
    {
      "inputs": [],
      "name": "name",
      "outputs": [
        {
          "internalType": "string",
          "name": "",
          "type": "string"
        }
      ],
      "stateMutability": "view",
      "type": "function"
    },
    {
      "inputs": [],
      "name": "owner",
      "outputs": [
        {
          "internalType": "address",
          "name": "",
          "type": "address"
        }
      ],
      "stateMutability": "view",
      "type": "function"
    },
    {
      "inputs": [],
      "name": "price",
      "outputs": [
        {
          "internalType": "uint256",
          "name": "",
          "type": "uint256"
        }
      ],
      "stateMutability": "view",
      "type": "function"
    },
    {
      "inputs": [],
      "name": "renounceOwnership",
      "outputs": [],
      "stateMutability": "nonpayable",
      "type": "function"
    },
    {
      "inputs": [],
      "name": "rewardToken",
      "outputs": [
        {
          "internalType": "contract Dagogo",
          "name": "",
          "type": "address"
        }
      ],
      "stateMutability": "view",
      "type": "function"
    },
    {
      "inputs": [
        {
          "internalType": "contract IERC20",
          "name": "_withdrawToken",
          "type": "address"
        },
        {
          "internalType": "uint256",
          "name": "_amount",
          "type": "uint256"
        }
      ],
      "name": "sellTokens",
      "outputs": [],
      "stateMutability": "nonpayable",
      "type": "function"
    },
    {
      "inputs": [
        {
          "internalType": "uint256",
          "name": "_price",
          "type": "uint256"
        }
      ],
      "name": "setPrice",
      "outputs": [],
      "stateMutability": "nonpayable",
      "type": "function"
    },
    {
      "inputs": [
        {
          "internalType": "address",
          "name": "newOwner",
          "type": "address"
        }
      ],
      "name": "transferOwnership",
      "outputs": [],
      "stateMutability": "nonpayable",
      "type": "function"
    }
  ],
  "bytecode": "0x6080604052600160035560026005553480156200001b57600080fd5b5060405162001a8c38038062001a8c8339818101604052810190620000419190620002c8565b6200006162000055620000c360201b60201c565b620000cb60201b60201c565b8160019080519060200190620000799291906200018f565b5080600260006101000a81548173ffffffffffffffffffffffffffffffffffffffff021916908373ffffffffffffffffffffffffffffffffffffffff1602179055505050620004f4565b600033905090565b60008060009054906101000a900473ffffffffffffffffffffffffffffffffffffffff169050816000806101000a81548173ffffffffffffffffffffffffffffffffffffffff021916908373ffffffffffffffffffffffffffffffffffffffff1602179055508173ffffffffffffffffffffffffffffffffffffffff168173ffffffffffffffffffffffffffffffffffffffff167f8be0079c531659141344cd1fd0a4f28419497f9722a3daafe3b4186f6b6457e060405160405180910390a35050565b8280546200019d90620003ff565b90600052602060002090601f016020900481019282620001c157600085556200020d565b82601f10620001dc57805160ff19168380011785556200020d565b828001600101855582156200020d579182015b828111156200020c578251825591602001919060010190620001ef565b5b5090506200021c919062000220565b5090565b5b808211156200023b57600081600090555060010162000221565b5090565b60006200025662000250846200034b565b62000322565b9050828152602081018484840111156200026f57600080fd5b6200027c848285620003c9565b509392505050565b6000815190506200029581620004da565b92915050565b600082601f830112620002ad57600080fd5b8151620002bf8482602086016200023f565b91505092915050565b60008060408385031215620002dc57600080fd5b600083015167ffffffffffffffff811115620002f757600080fd5b62000305858286016200029b565b9250506020620003188582860162000284565b9150509250929050565b60006200032e62000341565b90506200033c828262000435565b919050565b6000604051905090565b600067ffffffffffffffff8211156200036957620003686200049a565b5b6200037482620004c9565b9050602081019050919050565b60006200038e82620003a9565b9050919050565b6000620003a28262000381565b9050919050565b600073ffffffffffffffffffffffffffffffffffffffff82169050919050565b60005b83811015620003e9578082015181840152602081019050620003cc565b83811115620003f9576000848401525b50505050565b600060028204905060018216806200041857607f821691505b602082108114156200042f576200042e6200046b565b5b50919050565b6200044082620004c9565b810181811067ffffffffffffffff821117156200046257620004616200049a565b5b80604052505050565b7f4e487b7100000000000000000000000000000000000000000000000000000000600052602260045260246000fd5b7f4e487b7100000000000000000000000000000000000000000000000000000000600052604160045260246000fd5b6000601f19601f8301169050919050565b620004e58162000395565b8114620004f157600080fd5b50565b61158880620005046000396000f3fe608060405234801561001057600080fd5b50600436106100a95760003560e01c806391b7f5ed1161007157806391b7f5ed1461012e578063a035b1fe1461014a578063c464fe6514610168578063c9828ae014610184578063f2fde38b146101a2578063f7c618c1146101be576100a9565b806306fdde03146100ae5780630752881a146100cc5780635192c82c146100e8578063715018a6146101065780638da5cb5b14610110575b600080fd5b6100b66101dc565b6040516100c39190611123565b60405180910390f35b6100e660048036038101906100e19190610eac565b61026a565b005b6100f0610605565b6040516100fd91906111c5565b60405180910390f35b61010e61060b565b005b610118610693565b604051610125919061103b565b60405180910390f35b61014860048036038101906101439190610ee8565b6106bc565b005b61015261077b565b60405161015f91906111c5565b60405180910390f35b610182600480360381019061017d9190610eac565b610781565b005b61018c610be1565b6040516101999190611108565b60405180910390f35b6101bc60048036038101906101b79190610e5a565b610c07565b005b6101c6610cff565b6040516101d391906110ed565b60405180910390f35b600180546101e99061135c565b80601f01602080910402602001604051908101604052809291908181526020018280546102159061135c565b80156102625780601f1061023757610100808354040283529160200191610262565b820191906000526020600020905b81548152906001019060200180831161024557829003601f168201915b505050505081565b81600460006101000a81548173ffffffffffffffffffffffffffffffffffffffff021916908373ffffffffffffffffffffffffffffffffffffffff16021790555080600460009054906101000a900473ffffffffffffffffffffffffffffffffffffffff1673ffffffffffffffffffffffffffffffffffffffff166370a08231336040518263ffffffff1660e01b8152600401610307919061103b565b60206040518083038186803b15801561031f57600080fd5b505afa158015610333573d6000803e3d6000fd5b505050506040513d601f19601f820116820180604052508101906103579190610f11565b101561036257600080fd5b600060035482610372919061122d565b905080600260009054906101000a900473ffffffffffffffffffffffffffffffffffffffff1673ffffffffffffffffffffffffffffffffffffffff166370a08231306040518263ffffffff1660e01b81526004016103d0919061103b565b60206040518083038186803b1580156103e857600080fd5b505afa1580156103fc573d6000803e3d6000fd5b505050506040513d601f19601f820116820180604052508101906104209190610f11565b1015610461576040517f08c379a000000000000000000000000000000000000000000000000000000000815260040161045890611165565b60405180910390fd5b600460009054906101000a900473ffffffffffffffffffffffffffffffffffffffff1673ffffffffffffffffffffffffffffffffffffffff166323b872dd3330856040518463ffffffff1660e01b81526004016104c093929190611056565b602060405180830381600087803b1580156104da57600080fd5b505af11580156104ee573d6000803e3d6000fd5b505050506040513d601f19601f820116820180604052508101906105129190610e83565b50600260009054906101000a900473ffffffffffffffffffffffffffffffffffffffff1673ffffffffffffffffffffffffffffffffffffffff1663a9059cbb33836040518363ffffffff1660e01b815260040161057092919061108d565b602060405180830381600087803b15801561058a57600080fd5b505af115801561059e573d6000803e3d6000fd5b505050506040513d601f19601f820116820180604052508101906105c29190610e83565b507f1c7e9477a39a792d1867e4568988a7e31e1f14dcdcacd0fb24f71ad0d02af55b33836003546040516105f8939291906110b6565b60405180910390a1505050565b60055481565b610613610d25565b73ffffffffffffffffffffffffffffffffffffffff16610631610693565b73ffffffffffffffffffffffffffffffffffffffff1614610687576040517f08c379a000000000000000000000000000000000000000000000000000000000815260040161067e906111a5565b60405180910390fd5b6106916000610d2d565b565b60008060009054906101000a900473ffffffffffffffffffffffffffffffffffffffff16905090565b6106c4610d25565b73ffffffffffffffffffffffffffffffffffffffff166106e2610693565b73ffffffffffffffffffffffffffffffffffffffff1614610738576040517f08c379a000000000000000000000000000000000000000000000000000000000815260040161072f906111a5565b60405180910390fd5b806003819055507f588be8105da92531a0b9aa42270053c162c89beba225e716353cde274c114417338260405161077092919061108d565b60405180910390a150565b60035481565b81600460006101000a81548173ffffffffffffffffffffffffffffffffffffffff021916908373ffffffffffffffffffffffffffffffffffffffff16021790555080600460009054906101000a900473ffffffffffffffffffffffffffffffffffffffff1673ffffffffffffffffffffffffffffffffffffffff166370a08231306040518263ffffffff1660e01b815260040161081e919061103b565b60206040518083038186803b15801561083657600080fd5b505afa15801561084a573d6000803e3d6000fd5b505050506040513d601f19601f8201168201806040525081019061086e9190610f11565b10156108af576040517f08c379a00000000000000000000000000000000000000000000000000000000081526004016108a690611185565b60405180910390fd5b6000600554826108bf91906111fc565b905080600260009054906101000a900473ffffffffffffffffffffffffffffffffffffffff1673ffffffffffffffffffffffffffffffffffffffff166370a08231336040518263ffffffff1660e01b815260040161091d919061103b565b60206040518083038186803b15801561093557600080fd5b505afa158015610949573d6000803e3d6000fd5b505050506040513d601f19601f8201168201806040525081019061096d9190610f11565b10156109ae576040517f08c379a00000000000000000000000000000000000000000000000000000000081526004016109a590611185565b60405180910390fd5b600260009054906101000a900473ffffffffffffffffffffffffffffffffffffffff1673ffffffffffffffffffffffffffffffffffffffff166323b872dd3330856040518463ffffffff1660e01b8152600401610a0d93929190611056565b602060405180830381600087803b158015610a2757600080fd5b505af1158015610a3b573d6000803e3d6000fd5b505050506040513d601f19601f82011682018060405250810190610a5f9190610e83565b50600260009054906101000a900473ffffffffffffffffffffffffffffffffffffffff1673ffffffffffffffffffffffffffffffffffffffff16639dc29fac30846040518363ffffffff1660e01b8152600401610abd92919061108d565b600060405180830381600087803b158015610ad757600080fd5b505af1158015610aeb573d6000803e3d6000fd5b50505050600460009054906101000a900473ffffffffffffffffffffffffffffffffffffffff1673ffffffffffffffffffffffffffffffffffffffff1663a9059cbb33836040518363ffffffff1660e01b8152600401610b4c92919061108d565b602060405180830381600087803b158015610b6657600080fd5b505af1158015610b7a573d6000803e3d6000fd5b505050506040513d601f19601f82011682018060405250810190610b9e9190610e83565b507fa97439132a2e45ce0b41e718edcb1859e3558b43195beddd9d5c90595c099cb13383600354604051610bd4939291906110b6565b60405180910390a1505050565b600460009054906101000a900473ffffffffffffffffffffffffffffffffffffffff1681565b610c0f610d25565b73ffffffffffffffffffffffffffffffffffffffff16610c2d610693565b73ffffffffffffffffffffffffffffffffffffffff1614610c83576040517f08c379a0000000000000000000000000000000000000000000000000000000008152600401610c7a906111a5565b60405180910390fd5b600073ffffffffffffffffffffffffffffffffffffffff168173ffffffffffffffffffffffffffffffffffffffff161415610cf3576040517f08c379a0000000000000000000000000000000000000000000000000000000008152600401610cea90611145565b60405180910390fd5b610cfc81610d2d565b50565b600260009054906101000a900473ffffffffffffffffffffffffffffffffffffffff1681565b600033905090565b60008060009054906101000a900473ffffffffffffffffffffffffffffffffffffffff169050816000806101000a81548173ffffffffffffffffffffffffffffffffffffffff021916908373ffffffffffffffffffffffffffffffffffffffff1602179055508173ffffffffffffffffffffffffffffffffffffffff168173ffffffffffffffffffffffffffffffffffffffff167f8be0079c531659141344cd1fd0a4f28419497f9722a3daafe3b4186f6b6457e060405160405180910390a35050565b600081359050610e00816114f6565b92915050565b600081519050610e158161150d565b92915050565b600081359050610e2a81611524565b92915050565b600081359050610e3f8161153b565b92915050565b600081519050610e548161153b565b92915050565b600060208284031215610e6c57600080fd5b6000610e7a84828501610df1565b91505092915050565b600060208284031215610e9557600080fd5b6000610ea384828501610e06565b91505092915050565b60008060408385031215610ebf57600080fd5b6000610ecd85828601610e1b565b9250506020610ede85828601610e30565b9150509250929050565b600060208284031215610efa57600080fd5b6000610f0884828501610e30565b91505092915050565b600060208284031215610f2357600080fd5b6000610f3184828501610e45565b91505092915050565b610f4381611287565b82525050565b610f52816112e1565b82525050565b610f6181611305565b82525050565b6000610f72826111e0565b610f7c81856111eb565b9350610f8c818560208601611329565b610f958161141b565b840191505092915050565b6000610fad6026836111eb565b9150610fb88261142c565b604082019050919050565b6000610fd06013836111eb565b9150610fdb8261147b565b602082019050919050565b6000610ff36013836111eb565b9150610ffe826114a4565b602082019050919050565b60006110166020836111eb565b9150611021826114cd565b602082019050919050565b611035816112d7565b82525050565b60006020820190506110506000830184610f3a565b92915050565b600060608201905061106b6000830186610f3a565b6110786020830185610f3a565b611085604083018461102c565b949350505050565b60006040820190506110a26000830185610f3a565b6110af602083018461102c565b9392505050565b60006060820190506110cb6000830186610f3a565b6110d8602083018561102c565b6110e5604083018461102c565b949350505050565b60006020820190506111026000830184610f49565b92915050565b600060208201905061111d6000830184610f58565b92915050565b6000602082019050818103600083015261113d8184610f67565b905092915050565b6000602082019050818103600083015261115e81610fa0565b9050919050565b6000602082019050818103600083015261117e81610fc3565b9050919050565b6000602082019050818103600083015261119e81610fe6565b9050919050565b600060208201905081810360008301526111be81611009565b9050919050565b60006020820190506111da600083018461102c565b92915050565b600081519050919050565b600082825260208201905092915050565b6000611207826112d7565b9150611212836112d7565b925082611222576112216113bd565b5b828204905092915050565b6000611238826112d7565b9150611243836112d7565b9250817fffffffffffffffffffffffffffffffffffffffffffffffffffffffffffffffff048311821515161561127c5761127b61138e565b5b828202905092915050565b6000611292826112b7565b9050919050565b60008115159050919050565b60006112b082611287565b9050919050565b600073ffffffffffffffffffffffffffffffffffffffff82169050919050565b6000819050919050565b60006112ec826112f3565b9050919050565b60006112fe826112b7565b9050919050565b600061131082611317565b9050919050565b6000611322826112b7565b9050919050565b60005b8381101561134757808201518184015260208101905061132c565b83811115611356576000848401525b50505050565b6000600282049050600182168061137457607f821691505b60208210811415611388576113876113ec565b5b50919050565b7f4e487b7100000000000000000000000000000000000000000000000000000000600052601160045260246000fd5b7f4e487b7100000000000000000000000000000000000000000000000000000000600052601260045260246000fd5b7f4e487b7100000000000000000000000000000000000000000000000000000000600052602260045260246000fd5b6000601f19601f8301169050919050565b7f4f776e61626c653a206e6577206f776e657220697320746865207a65726f206160008201527f6464726573730000000000000000000000000000000000000000000000000000602082015250565b7f5472792061206c657373657220616d6f756e7400000000000000000000000000600082015250565b7f7472792061206c657373657220616d6f756e7400000000000000000000000000600082015250565b7f4f776e61626c653a2063616c6c6572206973206e6f7420746865206f776e6572600082015250565b6114ff81611287565b811461150a57600080fd5b50565b61151681611299565b811461152157600080fd5b50565b61152d816112a5565b811461153857600080fd5b50565b611544816112d7565b811461154f57600080fd5b5056fea26469706673582212204c71ccf7f56cd916e43ce05d570738e1b83c7b7a2f903e8dce4284f76f7aadf164736f6c63430008040033",
  "linkReferences": {},
  "deployedLinkReferences": {}
}